:10000000F5C0000023C1000021C100001FC1000095
:100010001DC100001BC1000019C1000017C1000074
:1000200015C1000013C1000011C100000FC1000084
:100030000DC100000BC1000009C1000007C1000094
:1000400005C100004EC7000001C10000FFC0000054
:10005000FDC00000FBC00000F9C0000071C6000038
:10006000F5C0000037C600000CC60000EFC000005D
:10007000EDC00000EBC00000E9C00000E7C00000D8
:1000800003C70000E3C00000E1C00000DFC00000C3
:10009000DDC00000DBC00000D9C00000D7C00000F8
:1000A000D5C00000D3C00000C2C60000CFC0000011
:1000B000CDC00000CBC00000C9C000008BC600004E
:1000C000C5C00000C3C00000C1C00000BFC0000028
:1000D000BDC00000BBC00000B9C00000B7C0000038
:1000E000B5C0000000002100240027002A002D00D8
:1000F0003000330001010000040107010A01000083
:100100002200250028002B002E00310034000201BF
:100110000000050108010B01050505050705080894
:100120000808020202020A0A080804040404010181
:100130000101010101010303030303030303040796
:1001400007070C0C0C0C0C0C0C0C0202020206062D
:100150000606060606060B0B0B0B0B0B0B0B010220
:1001600010202008081020401020408002010201C9
:100170000804020101020408102040808040201081
:1001800008040201800402018040201008040201DA
:100190000804020101020408102040800102040842
:1001A0001020408000000A0B02090C0D0E08070306
:1001B000040100000000000000000000000000003A
:1001C000000000000000000000000000000000002F
:1001D00012111000000000000000000000000000EC
:1001E000000000000000000000009E0711241FBE58
:1001F000CFEFD1E2DEBFCDBF00E00CBF13E0A0E047
:10020000B2E0ECE4F3E100E00BBF02C007900D9216
:10021000AE31B107D9F724E0AEE1B3E001C01D92E1
:10022000AF39B207E1F710E0C6EFD0E000E006C05A
:1002300021970109802FFE010E949609C53FD10731
:1002400080E00807A9F7B9D60C94A409D9CEECEB45
:10025000F3E0A089B18982E08C93A485B5851C92D6
:10026000A685B7858FEC8C93108EA489B58986E01E
:100270008C93A289B3898C9180618C93A289B38974
:100280008C9188608C93A289B3898C9180688C93BF
:100290000288F389E02D80818F7D80830895CF923D
:1002A000DF92EF92FF920F931F932FB7F894C090B5
:1002B000B803D090B903E090BA03F090BB032FBF0E
:1002C0006C0D7D1D8E1D9F1D4FB7F8940091B803D6
:1002D0001091B9032091BA033091BB034FBF0C15A5
:1002E0001D052E053F0528F060177107820793074B
:1002F00058F71F910F91FF90EF90DF90CF900895E6
:10030000AF92BF92CF92DF92EF92FF920F931F9323
:10031000CF93DF936C017B018B01040F151FEB0161
:100320005E01AE18BF08C017D10759F06991D60118
:10033000ED91FC910190F081E02DC6011995892B7A
:1003400079F7C501DF91CF911F910F91FF90EF9049
:10035000DF90CF90BF90AF900895FC01538D448DF6
:10036000252F30E0842F90E0821B930B541710F060
:10037000CF96089501970895FC01918D828D98176D
:1003800061F0A28DAE0FBF2FB11D5D968C91928D45
:100390009F5F9F73928F90E008958FEF9FEF089576
:1003A000FC01918D828D981731F0828DE80FF11D3F
:1003B000858D90E008958FEF9FEF0895FC01918D5A
:1003C000228D892F90E0805C9F4F821B91098F7353
:1003D000992708958CEB93E0F1DF21E0892B09F454
:1003E00020E0822F0895FC01A48DA80FB92FB11D24
:1003F000A35ABF4F2C91848D90E001968F7399275B
:10040000848FA689B7892C93A089B1898C91837038
:1004100080648C93938D848D981306C00288F38931
:10042000E02D80818F7D80830895EF92FF920F935E
:100430001F93CF93DF93EC0181E0888F9B8D8C8D90
:1004400098131AC0E889F989808185FF15C09FB784
:10045000F894EE89FF896083E889F9898081837047
:10046000806480839FBF81E090E0DF91CF911F91F6
:100470000F91FF90EF900895F62E0B8D10E00F5F17
:100480001F4F0F731127E02E8C8D8E110BC00FB6EE
:1004900007FCFACFE889F989808185FFF5CFCE0185
:1004A000A2DFF2CFEB8DEC0FFD2FF11DE35AFF4FD2
:1004B000F0829FB7F8940B8FEA89FB898081806274
:1004C000D0CFCF93DF93EC01888D8823B1F0AA8938
:1004D000BB89E889F9898C9185FD03C0808186FDFF
:1004E0000CC00FB607FCF7CF8C9185FFF2CF80814F
:1004F00085FFEDCFCE0177DFEACFDF91CF91089571
:1005000080E090E0892B21F065DF81110E940000DE
:1005100080E090E0892B49F080E090E0892B29F081
:100520000E94000081110E94000080E090E0892B71
:1005300049F080E090E0892B29F00E9400008111B1
:100540000E94000080E090E0892B49F080E090E07C
:10055000892B29F00E94000081110C94000008955D
:10056000282F30E0F901EC55FE4F9491F901E25A41
:10057000FE4F4491285E3E4FF9012491222309F455
:1005800034C0992309F191509231F0F4E92FF0E051
:100590008827E353FD4F8F4FC9C6FE020203DF02D7
:1005A000F602FA02E40205030B030F031503190315
:1005B0001D0323032703E4022B033103350380913A
:1005C00080008F7780938000E22FF0E0EE0FFF1F16
:1005D000E250FF4FA591B4918FB7F894EC9161115F
:1005E00048C040954E234C938FBF08958091800062
:1005F0008F7DE8CF80918000877FE4CF84B58F77AF
:1006000084BDE2CF84B58F7DFBCF8091B0008F7722
:100610008093B000D9CF8091B0008F7DF9CF8091C9
:1006200090008F7780939000CFCF809190008F7D46
:10063000F9CF80919000877FF5CF8091A0008F77D0
:100640008093A000C1CF8091A0008F7DF9CF8091D1
:10065000A000877FF5CF809120018F7780932001C4
:10066000B3CF809120018F7DF9CF80912001877FCA
:10067000F5CF4E2BB8CFCF93DF9390E0FC01E25A39
:10068000FE4F2491885E9E4FFC0184918823D1F017
:1006900090E0880F991FFC01EC51FF4FA591B49198
:1006A000FC01E250FF4FC591D49161110EC09FB77C
:1006B000F8948C91E22FE0958E238C932881E2238D
:1006C000E8839FBFDF91CF9108958FB7F894EC91A5
:1006D000E22BEC938FBFF6CF90917B00977F9093A6
:1006E0007B00806480937C0080917A00806480939A
:1006F0007A0080917A0086FDFCCF809178009091FD
:10070000790008953FB7F8948091B4039091B503B0
:10071000A091B603B091B70326B5A89B05C02F3FA3
:1007200019F00196A11DB11D3FBFBA2FA92F982F17
:100730008827BC01CD01620F711D811D911D42E012
:10074000660F771F881F991F4A95D1F708958F92DA
:100750009F92AF92BF92CF92DF92EF92FF924B01A6
:100760005C01D0DF6B017C01CDDF6C197D098E0946
:100770009F09683E734081059105B0F321E0821A1C
:100780009108A108B10888EEC80E83E0D81EE11CCC
:10079000F11C81149104A104B10431F7FF90EF9092
:1007A000DF90CF90BF90AF909F908F900895CF92A1
:1007B000DF92EF92FF92CF93DF93EC01603282E001
:1007C0007807BCF5653B710514F064EB70E0898136
:1007D00028E830E0281B310987FD3395220F331FAD
:1007E000220F331F6901330FEE08FF088A8128E5C5
:1007F00032E0281B310987FD3395220F331F220F6A
:10080000331F032E000C440B550B2C193D094E09C8
:100810005F09DB0177FF02C0B0E0A0E066D524EB02
:1008200030E040E050E03BD5C20ED31EE41EF51E82
:10083000B601E881E03370F5298188E890E0821BF9
:10084000910927FD9395880F991F880F991F6817A5
:1008500079077CF02A8188E592E0821B910927FDC7
:100860009395880F991F880F991F681779070CF4C3
:10087000CB010297880F991F4FB7F8942E2F30E0C5
:10088000F901EE0FFF1FE20FF31FED5DFC4F9283A6
:1008900081834FBFDF91CF91FF90EF90DF90CF909A
:1008A00008951F93CF93DF93EC01162F8881803337
:1008B00008F04CC061E0812FDEDE8881282F30E017
:1008C000F901EE0FFF1FE20FF31FED5DFC4F1F73E9
:1008D0006081607C612B608319821A822CE0622F18
:1008E00019D5829FB001112430E020E0AB01420F06
:1008F000531FFA01EE0FFF1FE40FF51FED5DFC4FD4
:10090000908196FD16C02F5F3F4F2C30310571F757
:10091000813009F51092800082E08093810010926E
:10092000850010928400B19A80916F00826080935C
:100930006F00E8818E2F90E0FC01EE0FFF1FE80FA3
:10094000F91FED5DFC4F8081806480838881DF9199
:10095000CF911F910895823061F41092900080939E
:100960009100109295001092940088BB80937100C2
:10097000E0CF833069F41092A00082E08093A10060
:100980001092A5001092A40089BB80937200D1CF71
:100990008111CFCF1092200182E08093210110922B
:1009A0002501109224018ABB80937300C2CFFC0101
:1009B00090912203903398F481E0890F8093220371
:1009C0009083892F90E0FC01EE0FFF1FE80FF91FC5
:1009D000ED5DFC4F88EB9BE09283818308958FEF60
:1009E00080830895AF92BF92CF92DF92EF92FF92F1
:1009F0000F931F93CF93DF936B017A01EC01C25EDB
:100A0000DC4F28813CE0389F8001399F100D112474
:100A1000A0902203B12C27FF1FC0FB01118210827E
:100A200088818F5F888388819801280F311D87FD19
:100A30003A95F6012A153B051CF488818C30BCF1EF
:100A400080819181049680349C4908F471C0F6013C
:100A50008081918104966EC088819801280F311D94
:100A600087FD3A952A153B05DCF68881A801480FD9
:100A7000511D87FD5A95FA01EE0FFF1FE40FF51F78
:100A8000ED5DFC4F808186FFCBCF8881F801E80FB8
:100A9000F11D87FDFA95CF01EE0FFF1FE80FF91F3B
:100AA000ED5DFC4F808160E08F735ADDB9CF8081AE
:100AB00091812881A801420F511D27FD5A959A0165
:100AC000FA01EE0FFF1FE20FF31FED5DFC4F2181D6
:100AD0003281820F931FF70191838083888198016F
:100AE000280F311D87FD3A95F901EE0FFF1FE20F28
:100AF000F31FED5DFC4F808186FF21C08881080FC8
:100B0000111D87FD1A95F801EE0FFF1FE00FF11F71
:100B1000ED5DFC4F808161E08F73DF91CF911F917C
:100B20000F91FF90EF90DF90CF90BF90AF9018CDD6
:100B300080E49CE9F701918380838FEF8883DF91C4
:100B4000CF911F910F91FF90EF90DF90CF90BF90CA
:100B5000AF900895FC0101900020E9F73197AF01B3
:100B6000481B590BBC018CEB93E0CACBCF93DF93AE
:100B7000F1DFEC0182E192E0EDDF8C0F9D1FDF9150
:100B8000CF9108958F929F92AF92BF92CF92DF92B2
:100B9000EF92FF920F931F93CF93DF93CDB7DEB702
:100BA000A1970FB6F894DEBF0FBECDBF6C01990FB1
:100BB000EE08FF08F7FE43C06DE28CEB93E035DCF6
:100BC0008C0122273327A9012C193D094E095F0901
:100BD00019A2CE0181967C019AE0892E912CA12C3C
:100BE000B12CCA01B901A501940137D3605DF701A9
:100BF00062937F01211531054105510591F790E080
:100C000080E0309711F0CF01A5DF080F191F82E1B6
:100C100092E0A0DF800F911FA1960FB6F894DEBF7F
:100C20000FBECDBFDF91CF911F910F91FF90EF903D
:100C3000DF90CF90BF90AF909F908F900895A701C5
:100C4000960119A28E010F5D1F4F8AE0C82ED12C8C
:100C5000E12CF12CCA01B901A7019601FED2605D19
:100C6000F80162938F01211531054105510591F776
:100C7000309721F0CF016EDF8C01C9CF10E000E08A
:100C8000C6CF1F920F920FB60F9211240BB60F9280
:100C90002F933F934F935F936F937F938F939F9384
:100CA000AF93BF93EF93FF938CEB93E09CDBFF91AB
:100CB000EF91BF91AF919F918F917F916F915F91D4
:100CC0004F913F912F910F900BBE0F900FBE0F9041
:100CD0001F9018951F920F920FB60F9211240BB60A
:100CE0000F922F938F939F93EF93FF93E091CC03F9
:100CF000F091CD038081E091D203F091D30382FD86
:100D00001DC090818091D5038F5F8F732091D60392
:100D1000821741F0E091D503F0E0E454FC4F958F49
:100D20008093D503FF91EF919F918F912F910F9019
:100D30000BBE0F900FBE0F901F9018958081F2CFC1
:100D40001F920F920FB60F9211242F933F938F9300
:100D50009F93AF93BF938091B8039091B903A091F3
:100D6000BA03B091BB033091B30323E0230F2D37B7
:100D700058F50196A11DB11D2093B3038093B803CC
:100D80009093B903A093BA03B093BB038091B403CB
:100D90009091B503A091B603B091B7030196A11D40
:100DA000B11D8093B4039093B503A093B603B093A1
:100DB000B703BF91AF919F918F913F912F910F906A
:100DC0000FBE0F901F90189526E8230F0296A11DC5
:100DD000B11DD2CF1F920F920FB60F9211240BB6F6
:100DE0000F922F933F934F935F936F937F938F93C4
:100DF0009F93AF93BF93EF93FF9348E251E064E278
:100E000071E090E080E0EEDDFF91EF91BF91AF9156
:100E10009F918F917F916F915F914F913F912F9112
:100E20000F900BBE0F900FBE0F901F9018951F9242
:100E30000F920FB60F9211240BB60F922F933F9380
:100E40004F935F936F937F938F939F93AF93BF93D2
:100E5000EF93FF9348EA50E064EA70E083E090E0AB
:100E6000C1DDFF91EF91BF91AF919F918F917F91E4
:100E70006F915F914F913F912F910F900BBE0F900B
:100E80000FBE0F901F9018951F920F920FB60F92E2
:100E900011240BB60F922F933F934F935F936F9351
:100EA0007F938F939F93AF93BF93EF93FF9348E903
:100EB00050E064E970E082E090E094DDFF91EF9112
:100EC000BF91AF919F918F917F916F915F914F9162
:100ED0003F912F910F900BBE0F900FBE0F901F9060
:100EE00018951F920F920FB60F9211240BB60F9206
:100EF0002F933F934F935F936F937F938F939F9322
:100F0000AF93BF93EF93FF9348E850E064E870E03D
:100F100081E090E067DDFF91EF91BF91AF919F91EC
:100F20008F917F916F915F914F913F912F910F9092
:100F30000BBE0F900FBE0F901F901895ECEBF3E0D7
:100F40001382128288EE93E0A0E0B0E08483958360
:100F5000A683B78384E092E09183808385EC90E060
:100F60009587848784EC90E09787868780EC90E073
:100F7000918B808B81EC90E0938B828B82EC90E064
:100F8000958B848B86EC90E0978B868B118E128EDE
:100F9000138E148EE9E5F4E016821782108611860E
:100FA000128613861486158616861786108A118A6D
:100FB000128A138A148A158A0895CF93DF9300D07A
:100FC00000D000D0CDB7DEB7789484B5826084BD00
:100FD00084B5816084BD85B5826085BD85B581603D
:100FE00085BD80916E00816080936E0010928100BB
:100FF0008091810082608093810080918100816076
:101000008093810080918000816080938000809136
:10101000B10084608093B1008091B00081608093C2
:10102000B000809191008260809391008091910046
:101030008160809391008091900081608093900006
:101040008091A10082608093A1008091A1008160C5
:101050008093A1008091A00081608093A000809186
:101060002101826080932101809121018160809320
:1010700021018091200181608093200180917A007C
:10108000846080937A0080917A00826080937A00F5
:1010900080917A00816080937A0080917A008068E4
:1010A00080937A001092C10010929B0410929C04CD
:1010B00010929D0410929E0410925B0410925C04A6
:1010C00010925D0410925E0468EB7BE080E090E09B
:1010D000E6D868EE73E080E090E039DBB8D82FB74F
:1010E000F8948091B8039091B903A091BA03B0919C
:1010F000BB032FBF80935B0490935C04A0935D04BB
:10110000B0935E0485E192E025DD6AE070E080E066
:1011100090E0C5D881E080936F0499D886E292E090
:1011200025DD60E080E0A7DA60E081E0A4DA60E03D
:1011300082E0A1DA86E392E019DD8CE492E016DD2C
:1011400083E692E013DD88E792E010DD8CEB93E01C
:1011500035D9892BD9F38CEB93E00ED980359105E5
:1011600009F46EC08435910509F465C08D3491058C
:1011700009F071C08DEC92E0F9DCCE01079617DC26
:10118000CE01049614DCCE01019611DC6BE070E018
:10119000CE01079686DB6DE070E0CE01049681DB20
:1011A00062E370E0CE0101967CDBCC24CA9483E03C
:1011B000D82EE12CF12C80E08FDA24EB30E0DC013A
:1011C000BDD0A70196016BD04901C901DBDCB40198
:1011D000CE010796ECDA69E170E080E090E0B7DAE2
:1011E00081E07ADA24EB30E0DC01A8D0A701960197
:1011F00056D04901C901C6DCB401CE010496D7DA44
:1012000069E170E080E090E0A2DA82E065DA24EB48
:1012100030E0DC0193D0A701960141D04901C9011A
:10122000B1DCB401CE010196C2DA69E170E080E080
:1012300090E08DDAC0CF89ED92E098DC61D9FECFE5
:1012400084EE92E093DC11E08AEF92E08FDC1123D0
:1012500009F47CCFF3CF10E0F7CFA1E21A2EAA1B3E
:10126000BB1BFD010DC0AA1FBB1FEE1FFF1FA21756
:10127000B307E407F50720F0A21BB30BE40BF50B53
:10128000661F771F881F991F1A9469F760957095DC
:10129000809590959B01AC01BD01CF010895052E6D
:1012A00097FB16F400940FD057FD05D0D6DF07FC4E
:1012B00002D046F408C050954095309521953F4F97
:1012C0004F4F5F4F089590958095709561957F4F32
:1012D0008F4F9F4F08950FD0A59F900DB49F900DF5
:1012E000A49F800D911D11240895B7FFF4CFF3DF63
:1012F000821B930B0895A29FB001B39FC001A39FCF
:10130000700D811D1124911DB29F700D811D11243E
:10131000911D0895991B79E004C0991F961708F054
:10132000961B881F7A95C9F780950895EE0FFF1FC9
:10133000881F8BBF0790F691E02D1994DCDFB7FF73
:0C1340000895821B930B0895F894FFCFD2
:10134C000000000015028001AD016102DE01BC014C
:10135C00D0010D0A00564D4450565F317C315F561A
:10136C004D4450560A0053657474696E672075704D
:10137C002070696E730043616C6962726174696E8E
:10138C006720526F626F742041726D00476F696EF7
:10139C006720746F207265737420706F7369746941
:1013AC006F6E0043616C6C696E672052756E2046DF
:1013BC00756E6374696F6E00506C65617365206542
:1013CC006E7465722064657369726564206D6F64F8
:1013DC00653A204D20284D616E75616C20436F6E0F
:1013EC0074726F6C292C205420285465616368201A
:1013FC004D6F646529202620502028506C6179207F
:10140C005469632054616320546F6529004D616EEB
:10141C0075616C204D6F6465005465616368204D87
:10142C006F646500506C617920546963205461636A
:10143C0020546F65204D6F646500496E76616C6950
:10144C006420496E7075742120456E746572204D50
:0E145C002C2054206F722050206F6E6C79008F
:00000001FF
